{
  "_format": "hh-sol-artifact-1",
  "contractName": "panda",
  "sourceName": "contracts/nftmarket.sol",
  "abi": [
    {
      "inputs": [
        {
          "internalType": "string",
          "name": "__baseURI",
          "type": "string"
        },
        {
          "internalType": "address",
          "name": "__signer",
          "type": "address"
        }
      ],
      "stateMutability": "nonpayable",
      "type": "constructor"
    },
    {
      "anonymous": false,
      "inputs": [
        {
          "indexed": true,
          "internalType": "address",
          "name": "owner",
          "type": "address"
        },
        {
          "indexed": true,
          "internalType": "address",
          "name": "approved",
          "type": "address"
        },
        {
          "indexed": true,
          "internalType": "uint256",
          "name": "tokenId",
          "type": "uint256"
        }
      ],
      "name": "Approval",
      "type": "event"
    },
    {
      "anonymous": false,
      "inputs": [
        {
          "indexed": true,
          "internalType": "address",
          "name": "owner",
          "type": "address"
        },
        {
          "indexed": true,
          "internalType": "address",
          "name": "operator",
          "type": "address"
        },
        {
          "indexed": false,
          "internalType": "bool",
          "name": "approved",
          "type": "bool"
        }
      ],
      "name": "ApprovalForAll",
      "type": "event"
    },
    {
      "anonymous": false,
      "inputs": [
        {
          "indexed": true,
          "internalType": "address",
          "name": "previousOwner",
          "type": "address"
        },
        {
          "indexed": true,
          "internalType": "address",
          "name": "newOwner",
          "type": "address"
        }
      ],
      "name": "OwnershipTransferred",
      "type": "event"
    },
    {
      "anonymous": false,
      "inputs": [
        {
          "indexed": true,
          "internalType": "address",
          "name": "from",
          "type": "address"
        },
        {
          "indexed": true,
          "internalType": "address",
          "name": "to",
          "type": "address"
        },
        {
          "indexed": true,
          "internalType": "uint256",
          "name": "tokenId",
          "type": "uint256"
        }
      ],
      "name": "Transfer",
      "type": "event"
    },
    {
      "inputs": [
        {
          "internalType": "address",
          "name": "to",
          "type": "address"
        },
        {
          "internalType": "uint256",
          "name": "tokenId",
          "type": "uint256"
        }
      ],
      "name": "approve",
      "outputs": [],
      "stateMutability": "nonpayable",
      "type": "function"
    },
    {
      "inputs": [
        {
          "internalType": "address",
          "name": "owner",
          "type": "address"
        }
      ],
      "name": "balanceOf",
      "outputs": [
        {
          "internalType": "uint256",
          "name": "",
          "type": "uint256"
        }
      ],
      "stateMutability": "view",
      "type": "function"
    },
    {
      "inputs": [
        {
          "internalType": "uint256",
          "name": "nonce",
          "type": "uint256"
        },
        {
          "internalType": "bytes",
          "name": "signature",
          "type": "bytes"
        }
      ],
      "name": "claim",
      "outputs": [],
      "stateMutability": "nonpayable",
      "type": "function"
    },
    {
      "inputs": [
        {
          "internalType": "uint256",
          "name": "_nonce",
          "type": "uint256"
        }
      ],
      "name": "closeNonce",
      "outputs": [],
      "stateMutability": "nonpayable",
      "type": "function"
    },
    {
      "inputs": [
        {
          "internalType": "uint256",
          "name": "tokenId",
          "type": "uint256"
        }
      ],
      "name": "getApproved",
      "outputs": [
        {
          "internalType": "address",
          "name": "",
          "type": "address"
        }
      ],
      "stateMutability": "view",
      "type": "function"
    },
    {
      "inputs": [
        {
          "internalType": "address",
          "name": "owner",
          "type": "address"
        },
        {
          "internalType": "address",
          "name": "operator",
          "type": "address"
        }
      ],
      "name": "isApprovedForAll",
      "outputs": [
        {
          "internalType": "bool",
          "name": "",
          "type": "bool"
        }
      ],
      "stateMutability": "view",
      "type": "function"
    },
    {
      "inputs": [],
      "name": "lockMetadata",
      "outputs": [],
      "stateMutability": "nonpayable",
      "type": "function"
    },
    {
      "inputs": [],
      "name": "locked",
      "outputs": [
        {
          "internalType": "bool",
          "name": "",
          "type": "bool"
        }
      ],
      "stateMutability": "view",
      "type": "function"
    },
    {
      "inputs": [],
      "name": "maxMintable",
      "outputs": [
        {
          "internalType": "uint256",
          "name": "",
          "type": "uint256"
        }
      ],
      "stateMutability": "view",
      "type": "function"
    },
    {
      "inputs": [],
      "name": "max_supply",
      "outputs": [
        {
          "internalType": "uint256",
          "name": "",
          "type": "uint256"
        }
      ],
      "stateMutability": "view",
      "type": "function"
    },
    {
      "inputs": [
        {
          "internalType": "uint256",
          "name": "_amount",
          "type": "uint256"
        }
      ],
      "name": "mint",
      "outputs": [],
      "stateMutability": "payable",
      "type": "function"
    },
    {
      "inputs": [
        {
          "internalType": "address",
          "name": "",
          "type": "address"
        }
      ],
      "name": "minted",
      "outputs": [
        {
          "internalType": "uint256",
          "name": "",
          "type": "uint256"
        }
      ],
      "stateMutability": "view",
      "type": "function"
    },
    {
      "inputs": [],
      "name": "name",
      "outputs": [
        {
          "internalType": "string",
          "name": "",
          "type": "string"
        }
      ],
      "stateMutability": "view",
      "type": "function"
    },
    {
      "inputs": [],
      "name": "owner",
      "outputs": [
        {
          "internalType": "address",
          "name": "",
          "type": "address"
        }
      ],
      "stateMutability": "view",
      "type": "function"
    },
    {
      "inputs": [
        {
          "internalType": "uint256",
          "name": "tokenId",
          "type": "uint256"
        }
      ],
      "name": "ownerOf",
      "outputs": [
        {
          "internalType": "address",
          "name": "",
          "type": "address"
        }
      ],
      "stateMutability": "view",
      "type": "function"
    },
    {
      "inputs": [],
      "name": "preSaleIsActive",
      "outputs": [
        {
          "internalType": "bool",
          "name": "",
          "type": "bool"
        }
      ],
      "stateMutability": "view",
      "type": "function"
    },
    {
      "inputs": [
        {
          "internalType": "uint256",
          "name": "amount",
          "type": "uint256"
        },
        {
          "internalType": "uint256",
          "name": "nonce",
          "type": "uint256"
        },
        {
          "internalType": "bytes",
          "name": "signature",
          "type": "bytes"
        }
      ],
      "name": "preSaleMint",
      "outputs": [],
      "stateMutability": "payable",
      "type": "function"
    },
    {
      "inputs": [],
      "name": "remainingReserved",
      "outputs": [
        {
          "internalType": "uint256",
          "name": "",
          "type": "uint256"
        }
      ],
      "stateMutability": "view",
      "type": "function"
    },
    {
      "inputs": [],
      "name": "renounceOwnership",
      "outputs": [],
      "stateMutability": "nonpayable",
      "type": "function"
    },
    {
      "inputs": [
        {
          "internalType": "address",
          "name": "from",
          "type": "address"
        },
        {
          "internalType": "address",
          "name": "to",
          "type": "address"
        },
        {
          "internalType": "uint256",
          "name": "tokenId",
          "type": "uint256"
        }
      ],
      "name": "safeTransferFrom",
      "outputs": [],
      "stateMutability": "nonpayable",
      "type": "function"
    },
    {
      "inputs": [
        {
          "internalType": "address",
          "name": "from",
          "type": "address"
        },
        {
          "internalType": "address",
          "name": "to",
          "type": "address"
        },
        {
          "internalType": "uint256",
          "name": "tokenId",
          "type": "uint256"
        },
        {
          "internalType": "bytes",
          "name": "_data",
          "type": "bytes"
        }
      ],
      "name": "safeTransferFrom",
      "outputs": [],
      "stateMutability": "nonpayable",
      "type": "function"
    },
    {
      "inputs": [],
      "name": "saleIsActive",
      "outputs": [
        {
          "internalType": "bool",
          "name": "",
          "type": "bool"
        }
      ],
      "stateMutability": "view",
      "type": "function"
    },
    {
      "inputs": [],
      "name": "sale_price",
      "outputs": [
        {
          "internalType": "uint256",
          "name": "",
          "type": "uint256"
        }
      ],
      "stateMutability": "view",
      "type": "function"
    },
    {
      "inputs": [
        {
          "internalType": "address",
          "name": "operator",
          "type": "address"
        },
        {
          "internalType": "bool",
          "name": "approved",
          "type": "bool"
        }
      ],
      "name": "setApprovalForAll",
      "outputs": [],
      "stateMutability": "nonpayable",
      "type": "function"
    },
    {
      "inputs": [
        {
          "internalType": "string",
          "name": "__baseURI",
          "type": "string"
        }
      ],
      "name": "setBaseURI",
      "outputs": [],
      "stateMutability": "nonpayable",
      "type": "function"
    },
    {
      "inputs": [
        {
          "internalType": "uint256",
          "name": "n",
          "type": "uint256"
        }
      ],
      "name": "setMaxMintablePerAcc",
      "outputs": [],
      "stateMutability": "nonpayable",
      "type": "function"
    },
    {
      "inputs": [
        {
          "internalType": "address",
          "name": "__signer",
          "type": "address"
        }
      ],
      "name": "setSigner",
      "outputs": [],
      "stateMutability": "nonpayable",
      "type": "function"
    },
    {
      "inputs": [
        {
          "internalType": "bytes4",
          "name": "interfaceId",
          "type": "bytes4"
        }
      ],
      "name": "supportsInterface",
      "outputs": [
        {
          "internalType": "bool",
          "name": "",
          "type": "bool"
        }
      ],
      "stateMutability": "view",
      "type": "function"
    },
    {
      "inputs": [],
      "name": "symbol",
      "outputs": [
        {
          "internalType": "string",
          "name": "",
          "type": "string"
        }
      ],
      "stateMutability": "view",
      "type": "function"
    },
    {
      "inputs": [],
      "name": "togglePreSale",
      "outputs": [],
      "stateMutability": "nonpayable",
      "type": "function"
    },
    {
      "inputs": [],
      "name": "toggleSale",
      "outputs": [],
      "stateMutability": "nonpayable",
      "type": "function"
    },
    {
      "inputs": [
        {
          "internalType": "uint256",
          "name": "index",
          "type": "uint256"
        }
      ],
      "name": "tokenByIndex",
      "outputs": [
        {
          "internalType": "uint256",
          "name": "",
          "type": "uint256"
        }
      ],
      "stateMutability": "view",
      "type": "function"
    },
    {
      "inputs": [
        {
          "internalType": "address",
          "name": "owner",
          "type": "address"
        },
        {
          "internalType": "uint256",
          "name": "index",
          "type": "uint256"
        }
      ],
      "name": "tokenOfOwnerByIndex",
      "outputs": [
        {
          "internalType": "uint256",
          "name": "",
          "type": "uint256"
        }
      ],
      "stateMutability": "view",
      "type": "function"
    },
    {
      "inputs": [
        {
          "internalType": "uint256",
          "name": "tokenId",
          "type": "uint256"
        }
      ],
      "name": "tokenURI",
      "outputs": [
        {
          "internalType": "string",
          "name": "",
          "type": "string"
        }
      ],
      "stateMutability": "view",
      "type": "function"
    },
    {
      "inputs": [
        {
          "internalType": "address",
          "name": "_owner1",
          "type": "address"
        }
      ],
      "name": "tokensOfOwner",
      "outputs": [
        {
          "internalType": "uint256[]",
          "name": "",
          "type": "uint256[]"
        }
      ],
      "stateMutability": "view",
      "type": "function"
    },
    {
      "inputs": [],
      "name": "totalSupply",
      "outputs": [
        {
          "internalType": "uint256",
          "name": "",
          "type": "uint256"
        }
      ],
      "stateMutability": "view",
      "type": "function"
    },
    {
      "inputs": [
        {
          "internalType": "address",
          "name": "from",
          "type": "address"
        },
        {
          "internalType": "address",
          "name": "to",
          "type": "address"
        },
        {
          "internalType": "uint256",
          "name": "tokenId",
          "type": "uint256"
        }
      ],
      "name": "transferFrom",
      "outputs": [],
      "stateMutability": "nonpayable",
      "type": "function"
    },
    {
      "inputs": [
        {
          "internalType": "address",
          "name": "newOwner",
          "type": "address"
        }
      ],
      "name": "transferOwnership",
      "outputs": [],
      "stateMutability": "nonpayable",
      "type": "function"
    },
    {
      "inputs": [
        {
          "internalType": "uint256",
          "name": "",
          "type": "uint256"
        }
      ],
      "name": "usedNonces",
      "outputs": [
        {
          "internalType": "bool",
          "name": "",
          "type": "bool"
        }
      ],
      "stateMutability": "view",
      "type": "function"
    },
    {
      "inputs": [
        {
          "internalType": "address payable",
          "name": "receiver",
          "type": "address"
        }
      ],
      "name": "withdrawAll",
      "outputs": [],
      "stateMutability": "nonpayable",
      "type": "function"
    },
    {
      "stateMutability": "payable",
      "type": "receive"
    }
  ],
  "bytecode": "0x60806040526002600c556021600d553480156200001b57600080fd5b50604051620060933803806200609383398181016040528101906200004191906200036a565b6040518060400160405280600d81526020017f49206c6f76652070616e646173000000000000000000000000000000000000008152506040518060400160405280600381526020017f504e4400000000000000000000000000000000000000000000000000000000008152508160009080519060200190620000c592919062000231565b508060019080519060200190620000de92919062000231565b50505062000101620000f56200016360201b60201c565b6200016b60201b60201c565b81600b90805190602001906200011992919062000231565b5080600e60036101000a81548173ffffffffffffffffffffffffffffffffffffffff021916908373ffffffffffffffffffffffffffffffffffffffff160217905550505062000582565b600033905090565b6000600a60009054906101000a900473ffffffffffffffffffffffffffffffffffffffff16905081600a60006101000a81548173ffffffffffffffffffffffffffffffffffffffff021916908373ffffffffffffffffffffffffffffffffffffffff1602179055508173ffffffffffffffffffffffffffffffffffffffff168173ffffffffffffffffffffffffffffffffffffffff167f8be0079c531659141344cd1fd0a4f28419497f9722a3daafe3b4186f6b6457e060405160405180910390a35050565b8280546200023f906200048d565b90600052602060002090601f016020900481019282620002635760008555620002af565b82601f106200027e57805160ff1916838001178555620002af565b82800160010185558215620002af579182015b82811115620002ae57825182559160200191906001019062000291565b5b509050620002be9190620002c2565b5090565b5b80821115620002dd576000816000905550600101620002c3565b5090565b6000620002f8620002f284620003ed565b620003c4565b9050828152602081018484840111156200031157600080fd5b6200031e84828562000457565b509392505050565b600081519050620003378162000568565b92915050565b600082601f8301126200034f57600080fd5b815162000361848260208601620002e1565b91505092915050565b600080604083850312156200037e57600080fd5b600083015167ffffffffffffffff8111156200039957600080fd5b620003a7858286016200033d565b9250506020620003ba8582860162000326565b9150509250929050565b6000620003d0620003e3565b9050620003de8282620004c3565b919050565b6000604051905090565b600067ffffffffffffffff8211156200040b576200040a62000528565b5b620004168262000557565b9050602081019050919050565b6000620004308262000437565b9050919050565b600073ffffffffffffffffffffffffffffffffffffffff82169050919050565b60005b83811015620004775780820151818401526020810190506200045a565b8381111562000487576000848401525b50505050565b60006002820490506001821680620004a657607f821691505b60208210811415620004bd57620004bc620004f9565b5b50919050565b620004ce8262000557565b810181811067ffffffffffffffff82111715620004f057620004ef62000528565b5b80604052505050565b7f4e487b7100000000000000000000000000000000000000000000000000000000600052602260045260246000fd5b7f4e487b7100000000000000000000000000000000000000000000000000000000600052604160045260246000fd5b6000601f19601f8301169050919050565b620005738162000423565b81146200057f57600080fd5b50565b615b0180620005926000396000f3fe60806040526004361061023f5760003560e01c8063715018a61161012e578063a0712d68116100ab578063cf3090121161006f578063cf3090121461085e578063e985e9c514610889578063eb8d2444146108c6578063f2fde38b146108f1578063fa09e6301461091a57610246565b8063a0712d681461079c578063a22cb465146107b8578063b88d4fde146107e1578063c87b56dd1461080a578063ca3cb5221461084757610246565b80638da5cb5b116100f25780638da5cb5b146106d957806395d89b411461070457806395ec54db1461072f578063989bdbb61461075a5780639deaf5e01461077157610246565b8063715018a6146106275780637d8966e41461063e578063827481ea146106555780638462151c146106715780638a333b50146106ae57610246565b806338926b6d116101bc578063628854c811610180578063628854c81461051e5780636352211e146105475780636717e41c146105845780636c19e783146105c157806370a08231146105ea57610246565b806338926b6d1461043d578063410d00f01461046657806342842e0e1461048f5780634f6ccce7146104b857806355f804b3146104f557610246565b80631e7269c5116102035780631e7269c5146103445780631f0234d8146103815780632154dc39146103ac57806323b872dd146103d75780632f745c591461040057610246565b806301ffc9a71461024b57806306fdde0314610288578063081812fc146102b3578063095ea7b3146102f057806318160ddd1461031957610246565b3661024657005b600080fd5b34801561025757600080fd5b50610272600480360381019061026d9190613fc9565b610943565b60405161027f91906148bc565b60405180910390f35b34801561029457600080fd5b5061029d610955565b6040516102aa919061491c565b60405180910390f35b3480156102bf57600080fd5b506102da60048036038101906102d5919061405c565b6109e7565b6040516102e79190614833565b60405180910390f35b3480156102fc57600080fd5b5061031760048036038101906103129190613f8d565b610a6c565b005b34801561032557600080fd5b5061032e610b84565b60405161033b9190614dc3565b60405180910390f35b34801561035057600080fd5b5061036b60048036038101906103669190613df9565b610b91565b6040516103789190614dc3565b60405180910390f35b34801561038d57600080fd5b50610396610ba9565b6040516103a391906148bc565b60405180910390f35b3480156103b857600080fd5b506103c1610bbc565b6040516103ce9190614dc3565b60405180910390f35b3480156103e357600080fd5b506103fe60048036038101906103f99190613e87565b610bc2565b005b34801561040c57600080fd5b5061042760048036038101906104229190613f8d565b610c22565b6040516104349190614dc3565b60405180910390f35b34801561044957600080fd5b50610464600480360381019061045f9190614085565b610cc7565b005b34801561047257600080fd5b5061048d6004803603810190610488919061405c565b61100d565b005b34801561049b57600080fd5b506104b660048036038101906104b19190613e87565b6110b8565b005b3480156104c457600080fd5b506104df60048036038101906104da919061405c565b6110d8565b6040516104ec9190614dc3565b60405180910390f35b34801561050157600080fd5b5061051c6004803603810190610517919061401b565b61116f565b005b34801561052a57600080fd5b506105456004803603810190610540919061405c565b611255565b005b34801561055357600080fd5b5061056e6004803603810190610569919061405c565b6112db565b60405161057b9190614833565b60405180910390f35b34801561059057600080fd5b506105ab60048036038101906105a6919061405c565b61138d565b6040516105b891906148bc565b60405180910390f35b3480156105cd57600080fd5b506105e860048036038101906105e39190613df9565b6113ad565b005b3480156105f657600080fd5b50610611600480360381019061060c9190613df9565b61146d565b60405161061e9190614dc3565b60405180910390f35b34801561063357600080fd5b5061063c611525565b005b34801561064a57600080fd5b506106536115ad565b005b61066f600480360381019061066a91906140dd565b611655565b005b34801561067d57600080fd5b5061069860048036038101906106939190613df9565b611a05565b6040516106a5919061489a565b60405180910390f35b3480156106ba57600080fd5b506106c3611b81565b6040516106d09190614dc3565b60405180910390f35b3480156106e557600080fd5b506106ee611b87565b6040516106fb9190614833565b60405180910390f35b34801561071057600080fd5b50610719611bb1565b604051610726919061491c565b60405180910390f35b34801561073b57600080fd5b50610744611c43565b6040516107519190614dc3565b60405180910390f35b34801561076657600080fd5b5061076f611c4e565b005b34801561077d57600080fd5b50610786611ce7565b6040516107939190614dc3565b60405180910390f35b6107b660048036038101906107b1919061405c565b611ced565b005b3480156107c457600080fd5b506107df60048036038101906107da9190613f51565b611f55565b005b3480156107ed57600080fd5b5061080860048036038101906108039190613ed6565b611f6b565b005b34801561081657600080fd5b50610831600480360381019061082c919061405c565b611fcd565b60405161083e919061491c565b60405180910390f35b34801561085357600080fd5b5061085c61206a565b005b34801561086a57600080fd5b50610873612112565b60405161088091906148bc565b60405180910390f35b34801561089557600080fd5b506108b060048036038101906108ab9190613e4b565b612125565b6040516108bd91906148bc565b60405180910390f35b3480156108d257600080fd5b506108db6121b9565b6040516108e891906148bc565b60405180910390f35b3480156108fd57600080fd5b5061091860048036038101906109139190613df9565b6121cc565b005b34801561092657600080fd5b50610941600480360381019061093c9190613e22565b6122c4565b005b600061094e82612390565b9050919050565b606060008054610964906150ce565b80601f0160208091040260200160405190810160405280929190818152602001828054610990906150ce565b80156109dd5780601f106109b2576101008083540402835291602001916109dd565b820191906000526020600020905b8154815290600101906020018083116109c057829003601f168201915b5050505050905090565b60006109f28261240a565b610a31576040517f08c379a0000000000000000000000000000000000000000000000000000000008152600401610a2890614c43565b60405180910390fd5b6004600083815260200190815260200160002060009054906101000a900473ffffffffffffffffffffffffffffffffffffffff169050919050565b6000610a77826112db565b90508073ffffffffffffffffffffffffffffffffffffffff168373ffffffffffffffffffffffffffffffffffffffff161415610ae8576040517f08c379a0000000000000000000000000000000000000000000000000000000008152600401610adf90614d03565b60405180910390fd5b8073ffffffffffffffffffffffffffffffffffffffff16610b07612476565b73ffffffffffffffffffffffffffffffffffffffff161480610b365750610b3581610b30612476565b612125565b5b610b75576040517f08c379a0000000000000000000000000000000000000000000000000000000008152600401610b6c90614b63565b60405180910390fd5b610b7f838361247e565b505050565b6000600880549050905090565b600f6020528060005260406000206000915090505481565b600e60019054906101000a900460ff1681565b600c5481565b610bd3610bcd612476565b82612537565b610c12576040517f08c379a0000000000000000000000000000000000000000000000000000000008152600401610c0990614d23565b60405180910390fd5b610c1d838383612615565b505050565b6000610c2d8361146d565b8210610c6e576040517f08c379a0000000000000000000000000000000000000000000000000000000008152600401610c6590614a23565b60405180910390fd5b600660008473ffffffffffffffffffffffffffffffffffffffff1673ffffffffffffffffffffffffffffffffffffffff168152602001908152602001600020600083815260200190815260200160002054905092915050565b6000610cd1610b84565b90506000600d5411610d18576040517f08c379a0000000000000000000000000000000000000000000000000000000008152600401610d0f90614c83565b60405180910390fd5b6010600085815260200190815260200160002060009054906101000a900460ff1615610d79576040517f08c379a0000000000000000000000000000000000000000000000000000000008152600401610d7090614da3565b60405180910390fd5b600c54600f60003373ffffffffffffffffffffffffffffffffffffffff1673ffffffffffffffffffffffffffffffffffffffff168152602001908152602001600020541115610dfd576040517f08c379a0000000000000000000000000000000000000000000000000000000008152600401610df4906149a3565b60405180910390fd5b6000610e303386604051602001610e159291906147ca565b60405160208183030381529060405280519060200120612871565b9050600e60039054906101000a900473ffffffffffffffffffffffffffffffffffffffff1673ffffffffffffffffffffffffffffffffffffffff16610eb98286868080601f016020809104026020016040519081016040528093929190818152602001838380828437600081840152601f19601f820116905080830192505050505050506128a1565b73ffffffffffffffffffffffffffffffffffffffff1614610f0f576040517f08c379a0000000000000000000000000000000000000000000000000000000008152600401610f06906149e3565b60405180910390fd5b61014d8210610f53576040517f08c379a0000000000000000000000000000000000000000000000000000000008152600401610f4a90614be3565b60405180910390fd5b60016010600087815260200190815260200160002060006101000a81548160ff021916908315150217905550600d6000815480929190610f92906150a4565b91905055506001600f60003373ffffffffffffffffffffffffffffffffffffffff1673ffffffffffffffffffffffffffffffffffffffff1681526020019081526020016000206000828254610fe79190614ee1565b925050819055508180610ff990615131565b92505061100633836128c8565b5050505050565b611015612476565b73ffffffffffffffffffffffffffffffffffffffff16611033611b87565b73ffffffffffffffffffffffffffffffffffffffff1614611089576040517f08c379a000000000000000000000000000000000000000000000000000000000815260040161108090614c63565b60405180910390fd5b60016010600083815260200190815260200160002060006101000a81548160ff02191690831515021790555050565b6110d383838360405180602001604052806000815250611f6b565b505050565b60006110e2610b84565b8210611123576040517f08c379a000000000000000000000000000000000000000000000000000000000815260040161111a90614d63565b60405180910390fd5b6008828154811061115d577f4e487b7100000000000000000000000000000000000000000000000000000000600052603260045260246000fd5b90600052602060002001549050919050565b611177612476565b73ffffffffffffffffffffffffffffffffffffffff16611195611b87565b73ffffffffffffffffffffffffffffffffffffffff16146111eb576040517f08c379a00000000000000000000000000000000000000000000000000000000081526004016111e290614c63565b60405180910390fd5b600e60029054906101000a900460ff161561123b576040517f08c379a0000000000000000000000000000000000000000000000000000000008152600401611232906149c3565b60405180910390fd5b80600b9080519060200190611251929190613bbe565b5050565b61125d612476565b73ffffffffffffffffffffffffffffffffffffffff1661127b611b87565b73ffffffffffffffffffffffffffffffffffffffff16146112d1576040517f08c379a00000000000000000000000000000000000000000000000000000000081526004016112c890614c63565b60405180910390fd5b80600c8190555050565b6000806002600084815260200190815260200160002060009054906101000a900473ffffffffffffffffffffffffffffffffffffffff169050600073ffffffffffffffffffffffffffffffffffffffff168173ffffffffffffffffffffffffffffffffffffffff161415611384576040517f08c379a000000000000000000000000000000000000000000000000000000000815260040161137b90614ba3565b60405180910390fd5b80915050919050565b60106020528060005260406000206000915054906101000a900460ff1681565b6113b5612476565b73ffffffffffffffffffffffffffffffffffffffff166113d3611b87565b73ffffffffffffffffffffffffffffffffffffffff1614611429576040517f08c379a000000000000000000000000000000000000000000000000000000000815260040161142090614c63565b60405180910390fd5b80600e60036101000a81548173ffffffffffffffffffffffffffffffffffffffff021916908373ffffffffffffffffffffffffffffffffffffffff16021790555050565b60008073ffffffffffffffffffffffffffffffffffffffff168273ffffffffffffffffffffffffffffffffffffffff1614156114de576040517f08c379a00000000000000000000000000000000000000000000000000000000081526004016114d590614b83565b60405180910390fd5b600360008373ffffffffffffffffffffffffffffffffffffffff1673ffffffffffffffffffffffffffffffffffffffff168152602001908152602001600020549050919050565b61152d612476565b73ffffffffffffffffffffffffffffffffffffffff1661154b611b87565b73ffffffffffffffffffffffffffffffffffffffff16146115a1576040517f08c379a000000000000000000000000000000000000000000000000000000000815260040161159890614c63565b60405180910390fd5b6115ab60006128e6565b565b6115b5612476565b73ffffffffffffffffffffffffffffffffffffffff166115d3611b87565b73ffffffffffffffffffffffffffffffffffffffff1614611629576040517f08c379a000000000000000000000000000000000000000000000000000000000815260040161162090614c63565b60405180910390fd5b600e60009054906101000a900460ff1615600e60006101000a81548160ff021916908315150217905550565b600061165f610b84565b9050600e60019054906101000a900460ff166116b0576040517f08c379a00000000000000000000000000000000000000000000000000000000081526004016116a790614a43565b60405180910390fd5b61014d85826116bf9190614ee1565b1115611700576040517f08c379a00000000000000000000000000000000000000000000000000000000081526004016116f790614c23565b60405180910390fd5b6000600f60003373ffffffffffffffffffffffffffffffffffffffff1673ffffffffffffffffffffffffffffffffffffffff168152602001908152602001600020549050600c5486826117539190614ee1565b1115611794576040517f08c379a000000000000000000000000000000000000000000000000000000000815260040161178b906149a3565b60405180910390fd5b8566c3663566a580006117a79190614f37565b3410156117e9576040517f08c379a00000000000000000000000000000000000000000000000000000000081526004016117e090614d83565b60405180910390fd5b600061181c33876040516020016118019291906147ca565b60405160208183030381529060405280519060200120612871565b9050600061186e8287878080601f016020809104026020016040519081016040528093929190818152602001838380828437600081840152601f19601f820116905080830192505050505050506128a1565b9050600e60039054906101000a900473ffffffffffffffffffffffffffffffffffffffff1673ffffffffffffffffffffffffffffffffffffffff168173ffffffffffffffffffffffffffffffffffffffff1614611900576040517f08c379a00000000000000000000000000000000000000000000000000000000081526004016118f7906149e3565b60405180910390fd5b878361190c9190614ee1565b600f60003373ffffffffffffffffffffffffffffffffffffffff1673ffffffffffffffffffffffffffffffffffffffff1681526020019081526020016000208190555060005b888110156119fa57848061196590615131565b95505061197233866128c8565b6119e76040518060400160405280601281526020017f0a0a4d696e74207375636365737366756c3a00000000000000000000000000008152506040518060400160405280601181526020017f0a596f757220746f6b656e49642069733a000000000000000000000000000000815250876129ac565b80806119f290615131565b915050611952565b505050505050505050565b60606000611a128361146d565b90506000811415611a9557600067ffffffffffffffff811115611a5e577f4e487b7100000000000000000000000000000000000000000000000000000000600052604160045260246000fd5b604051908082528060200260200182016040528015611a8c5781602001602082028036833780820191505090505b50915050611b7c565b60008167ffffffffffffffff811115611ad7577f4e487b7100000000000000000000000000000000000000000000000000000000600052604160045260246000fd5b604051908082528060200260200182016040528015611b055781602001602082028036833780820191505090505b50905060005b82811015611b7557611b1d8582610c22565b828281518110611b56577f4e487b7100000000000000000000000000000000000000000000000000000000600052603260045260246000fd5b6020026020010181815250508080611b6d90615131565b915050611b0b565b8193505050505b919050565b61014d81565b6000600a60009054906101000a900473ffffffffffffffffffffffffffffffffffffffff16905090565b606060018054611bc0906150ce565b80601f0160208091040260200160405190810160405280929190818152602001828054611bec906150ce565b8015611c395780601f10611c0e57610100808354040283529160200191611c39565b820191906000526020600020905b815481529060010190602001808311611c1c57829003601f168201915b5050505050905090565b66c3663566a5800081565b611c56612476565b73ffffffffffffffffffffffffffffffffffffffff16611c74611b87565b73ffffffffffffffffffffffffffffffffffffffff1614611cca576040517f08c379a0000000000000000000000000000000000000000000000000000000008152600401611cc190614c63565b60405180910390fd5b6001600e60026101000a81548160ff021916908315150217905550565b600d5481565b6000611cf7610b84565b9050600e60009054906101000a900460ff16611d48576040517f08c379a0000000000000000000000000000000000000000000000000000000008152600401611d3f90614b43565b60405180910390fd5b611d5133612a4b565b15611d91576040517f08c379a0000000000000000000000000000000000000000000000000000000008152600401611d8890614cc3565b60405180910390fd5b6000600f60003373ffffffffffffffffffffffffffffffffffffffff1673ffffffffffffffffffffffffffffffffffffffff168152602001908152602001600020549050600c548382611de49190614ee1565b1115611e25576040517f08c379a0000000000000000000000000000000000000000000000000000000008152600401611e1c906149a3565b60405180910390fd5b61014d8383611e349190614ee1565b1115611e75576040517f08c379a0000000000000000000000000000000000000000000000000000000008152600401611e6c90614d43565b60405180910390fd5b8266c3663566a58000611e889190614f37565b341015611eca576040517f08c379a0000000000000000000000000000000000000000000000000000000008152600401611ec190614d83565b60405180910390fd5b8281611ed69190614ee1565b600f60003373ffffffffffffffffffffffffffffffffffffffff1673ffffffffffffffffffffffffffffffffffffffff1681526020019081526020016000208190555060005b83811015611f4f578280611f2f90615131565b935050611f3c33846128c8565b8080611f4790615131565b915050611f1c565b50505050565b611f67611f60612476565b8383612a5e565b5050565b611f7c611f76612476565b83612537565b611fbb576040517f08c379a0000000000000000000000000000000000000000000000000000000008152600401611fb290614d23565b60405180910390fd5b611fc784848484612bcb565b50505050565b6060611fd88261240a565b612017576040517f08c379a000000000000000000000000000000000000000000000000000000000815260040161200e90614ce3565b60405180910390fd5b6000612021612c27565b905060008151116120415760405180602001604052806000815250612062565b8060405160200161205291906147f6565b6040516020818303038152906040525b915050919050565b612072612476565b73ffffffffffffffffffffffffffffffffffffffff16612090611b87565b73ffffffffffffffffffffffffffffffffffffffff16146120e6576040517f08c379a00000000000000000000000000000000000000000000000000000000081526004016120dd90614c63565b60405180910390fd5b600e60019054906101000a900460ff1615600e60016101000a81548160ff021916908315150217905550565b600e60029054906101000a900460ff1681565b6000600560008473ffffffffffffffffffffffffffffffffffffffff1673ffffffffffffffffffffffffffffffffffffffff16815260200190815260200160002060008373ffffffffffffffffffffffffffffffffffffffff1673ffffffffffffffffffffffffffffffffffffffff16815260200190815260200160002060009054906101000a900460ff16905092915050565b600e60009054906101000a900460ff1681565b6121d4612476565b73ffffffffffffffffffffffffffffffffffffffff166121f2611b87565b73ffffffffffffffffffffffffffffffffffffffff1614612248576040517f08c379a000000000000000000000000000000000000000000000000000000000815260040161223f90614c63565b60405180910390fd5b600073ffffffffffffffffffffffffffffffffffffffff168173ffffffffffffffffffffffffffffffffffffffff1614156122b8576040517f08c379a00000000000000000000000000000000000000000000000000000000081526004016122af90614a83565b60405180910390fd5b6122c1816128e6565b50565b6122cc612476565b73ffffffffffffffffffffffffffffffffffffffff166122ea611b87565b73ffffffffffffffffffffffffffffffffffffffff1614612340576040517f08c379a000000000000000000000000000000000000000000000000000000000815260040161233790614c63565b60405180910390fd5b60004790508173ffffffffffffffffffffffffffffffffffffffff166108fc829081150290604051600060405180830381858888f1935050505015801561238b573d6000803e3d6000fd5b505050565b60007f780e9d63000000000000000000000000000000000000000000000000000000007bffffffffffffffffffffffffffffffffffffffffffffffffffffffff1916827bffffffffffffffffffffffffffffffffffffffffffffffffffffffff19161480612403575061240282612cb9565b5b9050919050565b60008073ffffffffffffffffffffffffffffffffffffffff166002600084815260200190815260200160002060009054906101000a900473ffffffffffffffffffffffffffffffffffffffff1673ffffffffffffffffffffffffffffffffffffffff1614159050919050565b600033905090565b816004600083815260200190815260200160002060006101000a81548173ffffffffffffffffffffffffffffffffffffffff021916908373ffffffffffffffffffffffffffffffffffffffff160217905550808273ffffffffffffffffffffffffffffffffffffffff166124f1836112db565b73ffffffffffffffffffffffffffffffffffffffff167f8c5be1e5ebec7d5bd14f71427d1e84f3dd0314c0f7b2291e5b200ac8c7c3b92560405160405180910390a45050565b60006125428261240a565b612581576040517f08c379a000000000000000000000000000000000000000000000000000000000815260040161257890614b23565b60405180910390fd5b600061258c836112db565b90508073ffffffffffffffffffffffffffffffffffffffff168473ffffffffffffffffffffffffffffffffffffffff1614806125fb57508373ffffffffffffffffffffffffffffffffffffffff166125e3846109e7565b73ffffffffffffffffffffffffffffffffffffffff16145b8061260c575061260b8185612125565b5b91505092915050565b8273ffffffffffffffffffffffffffffffffffffffff16612635826112db565b73ffffffffffffffffffffffffffffffffffffffff161461268b576040517f08c379a000000000000000000000000000000000000000000000000000000000815260040161268290614ca3565b60405180910390fd5b600073ffffffffffffffffffffffffffffffffffffffff168273ffffffffffffffffffffffffffffffffffffffff1614156126fb576040517f08c379a00000000000000000000000000000000000000000000000000000000081526004016126f290614ac3565b60405180910390fd5b612706838383612d9b565b61271160008261247e565b6001600360008573ffffffffffffffffffffffffffffffffffffffff1673ffffffffffffffffffffffffffffffffffffffff16815260200190815260200160002060008282546127619190614f91565b925050819055506001600360008473ffffffffffffffffffffffffffffffffffffffff1673ffffffffffffffffffffffffffffffffffffffff16815260200190815260200160002060008282546127b89190614ee1565b92505081905550816002600083815260200190815260200160002060006101000a81548173ffffffffffffffffffffffffffffffffffffffff021916908373ffffffffffffffffffffffffffffffffffffffff160217905550808273ffffffffffffffffffffffffffffffffffffffff168473ffffffffffffffffffffffffffffffffffffffff167fddf252ad1be2c89b69c2b068fc378daa952ba7f163c4a11628f55a4df523b3ef60405160405180910390a4505050565b600081604051602001612884919061480d565b604051602081830303815290604052805190602001209050919050565b60008060006128b08585612dab565b915091506128bd81612e2e565b819250505092915050565b6128e282826040518060200160405280600081525061317f565b5050565b6000600a60009054906101000a900473ffffffffffffffffffffffffffffffffffffffff16905081600a60006101000a81548173ffffffffffffffffffffffffffffffffffffffff021916908373ffffffffffffffffffffffffffffffffffffffff1602179055508173ffffffffffffffffffffffffffffffffffffffff168173ffffffffffffffffffffffffffffffffffffffff167f8be0079c531659141344cd1fd0a4f28419497f9722a3daafe3b4186f6b6457e060405160405180910390a35050565b612a468383836040516024016129c49392919061493e565b6040516020818303038152906040527ff362ca59000000000000000000000000000000000000000000000000000000007bffffffffffffffffffffffffffffffffffffffffffffffffffffffff19166020820180517bffffffffffffffffffffffffffffffffffffffffffffffffffffffff83818316178352505050506131da565b505050565b600080823b905060008111915050919050565b8173ffffffffffffffffffffffffffffffffffffffff168373ffffffffffffffffffffffffffffffffffffffff161415612acd576040517f08c379a0000000000000000000000000000000000000000000000000000000008152600401612ac490614ae3565b60405180910390fd5b80600560008573ffffffffffffffffffffffffffffffffffffffff1673ffffffffffffffffffffffffffffffffffffffff16815260200190815260200160002060008473ffffffffffffffffffffffffffffffffffffffff1673ffffffffffffffffffffffffffffffffffffffff16815260200190815260200160002060006101000a81548160ff0219169083151502179055508173ffffffffffffffffffffffffffffffffffffffff168373ffffffffffffffffffffffffffffffffffffffff167f17307eab39ab6107e8899845ad3d59bd9653f200f220920489ca2b5937696c3183604051612bbe91906148bc565b60405180910390a3505050565b612bd6848484612615565b612be284848484613203565b612c21576040517f08c379a0000000000000000000000000000000000000000000000000000000008152600401612c1890614a63565b60405180910390fd5b50505050565b6060600b8054612c36906150ce565b80601f0160208091040260200160405190810160405280929190818152602001828054612c62906150ce565b8015612caf5780601f10612c8457610100808354040283529160200191612caf565b820191906000526020600020905b815481529060010190602001808311612c9257829003601f168201915b5050505050905090565b60007f80ac58cd000000000000000000000000000000000000000000000000000000007bffffffffffffffffffffffffffffffffffffffffffffffffffffffff1916827bffffffffffffffffffffffffffffffffffffffffffffffffffffffff19161480612d8457507f5b5e139f000000000000000000000000000000000000000000000000000000007bffffffffffffffffffffffffffffffffffffffffffffffffffffffff1916827bffffffffffffffffffffffffffffffffffffffffffffffffffffffff1916145b80612d945750612d938261339a565b5b9050919050565b612da6838383613404565b505050565b600080604183511415612ded5760008060006020860151925060408601519150606086015160001a9050612de187828585613518565b94509450505050612e27565b604083511415612e1e576000806020850151915060408501519050612e13868383613625565b935093505050612e27565b60006002915091505b9250929050565b60006004811115612e68577f4e487b7100000000000000000000000000000000000000000000000000000000600052602160045260246000fd5b816004811115612ea1577f4e487b7100000000000000000000000000000000000000000000000000000000600052602160045260246000fd5b1415612eac5761317c565b60016004811115612ee6577f4e487b7100000000000000000000000000000000000000000000000000000000600052602160045260246000fd5b816004811115612f1f577f4e487b7100000000000000000000000000000000000000000000000000000000600052602160045260246000fd5b1415612f60576040517f08c379a0000000000000000000000000000000000000000000000000000000008152600401612f5790614983565b60405180910390fd5b60026004811115612f9a577f4e487b7100000000000000000000000000000000000000000000000000000000600052602160045260246000fd5b816004811115612fd3577f4e487b7100000000000000000000000000000000000000000000000000000000600052602160045260246000fd5b1415613014576040517f08c379a000000000000000000000000000000000000000000000000000000000815260040161300b90614a03565b60405180910390fd5b6003600481111561304e577f4e487b7100000000000000000000000000000000000000000000000000000000600052602160045260246000fd5b816004811115613087577f4e487b7100000000000000000000000000000000000000000000000000000000600052602160045260246000fd5b14156130c8576040517f08c379a00000000000000000000000000000000000000000000000000000000081526004016130bf90614b03565b60405180910390fd5b600480811115613101577f4e487b7100000000000000000000000000000000000000000000000000000000600052602160045260246000fd5b81600481111561313a577f4e487b7100000000000000000000000000000000000000000000000000000000600052602160045260246000fd5b141561317b576040517f08c379a000000000000000000000000000000000000000000000000000000000815260040161317290614bc3565b60405180910390fd5b5b50565b6131898383613673565b6131966000848484613203565b6131d5576040517f08c379a00000000000000000000000000000000000000000000000000000000081526004016131cc90614a63565b60405180910390fd5b505050565b60008151905060006a636f6e736f6c652e6c6f679050602083016000808483855afa5050505050565b60006132248473ffffffffffffffffffffffffffffffffffffffff16612a4b565b1561338d578373ffffffffffffffffffffffffffffffffffffffff1663150b7a0261324d612476565b8786866040518563ffffffff1660e01b815260040161326f949392919061484e565b602060405180830381600087803b15801561328957600080fd5b505af19250505080156132ba57506040513d601f19601f820116820180604052508101906132b79190613ff2565b60015b61333d573d80600081146132ea576040519150601f19603f3d011682016040523d82523d6000602084013e6132ef565b606091505b50600081511415613335576040517f08c379a000000000000000000000000000000000000000000000000000000000815260040161332c90614a63565b60405180910390fd5b805181602001fd5b63150b7a0260e01b7bffffffffffffffffffffffffffffffffffffffffffffffffffffffff1916817bffffffffffffffffffffffffffffffffffffffffffffffffffffffff191614915050613392565b600190505b949350505050565b60007f01ffc9a7000000000000000000000000000000000000000000000000000000007bffffffffffffffffffffffffffffffffffffffffffffffffffffffff1916827bffffffffffffffffffffffffffffffffffffffffffffffffffffffff1916149050919050565b61340f838383613841565b600073ffffffffffffffffffffffffffffffffffffffff168373ffffffffffffffffffffffffffffffffffffffff1614156134525761344d81613846565b613491565b8173ffffffffffffffffffffffffffffffffffffffff168373ffffffffffffffffffffffffffffffffffffffff16146134905761348f838261388f565b5b5b600073ffffffffffffffffffffffffffffffffffffffff168273ffffffffffffffffffffffffffffffffffffffff1614156134d4576134cf816139fc565b613513565b8273ffffffffffffffffffffffffffffffffffffffff168273ffffffffffffffffffffffffffffffffffffffff1614613512576135118282613b3f565b5b5b505050565b6000807f7fffffffffffffffffffffffffffffff5d576e7357a4501ddfe92f46681b20a08360001c111561355357600060039150915061361c565b601b8560ff161415801561356b5750601c8560ff1614155b1561357d57600060049150915061361c565b6000600187878787604051600081526020016040526040516135a294939291906148d7565b6020604051602081039080840390855afa1580156135c4573d6000803e3d6000fd5b505050602060405103519050600073ffffffffffffffffffffffffffffffffffffffff168173ffffffffffffffffffffffffffffffffffffffff1614156136135760006001925092505061361c565b80600092509250505b94509492505050565b6000806000807f7fffffffffffffffffffffffffffffffffffffffffffffffffffffffffffffff85169150601b8560ff1c01905061366587828885613518565b935093505050935093915050565b600073ffffffffffffffffffffffffffffffffffffffff168273ffffffffffffffffffffffffffffffffffffffff1614156136e3576040517f08c379a00000000000000000000000000000000000000000000000000000000081526004016136da90614c03565b60405180910390fd5b6136ec8161240a565b1561372c576040517f08c379a000000000000000000000000000000000000000000000000000000000815260040161372390614aa3565b60405180910390fd5b61373860008383612d9b565b6001600360008473ffffffffffffffffffffffffffffffffffffffff1673ffffffffffffffffffffffffffffffffffffffff16815260200190815260200160002060008282546137889190614ee1565b92505081905550816002600083815260200190815260200160002060006101000a81548173ffffffffffffffffffffffffffffffffffffffff021916908373ffffffffffffffffffffffffffffffffffffffff160217905550808273ffffffffffffffffffffffffffffffffffffffff16600073ffffffffffffffffffffffffffffffffffffffff167fddf252ad1be2c89b69c2b068fc378daa952ba7f163c4a11628f55a4df523b3ef60405160405180910390a45050565b505050565b6008805490506009600083815260200190815260200160002081905550600881908060018154018082558091505060019003906000526020600020016000909190919091505550565b6000600161389c8461146d565b6138a69190614f91565b905060006007600084815260200190815260200160002054905081811461398b576000600660008673ffffffffffffffffffffffffffffffffffffffff1673ffffffffffffffffffffffffffffffffffffffff168152602001908152602001600020600084815260200190815260200160002054905080600660008773ffffffffffffffffffffffffffffffffffffffff1673ffffffffffffffffffffffffffffffffffffffff168152602001908152602001600020600084815260200190815260200160002081905550816007600083815260200190815260200160002081905550505b6007600084815260200190815260200160002060009055600660008573ffffffffffffffffffffffffffffffffffffffff1673ffffffffffffffffffffffffffffffffffffffff16815260200190815260200160002060008381526020019081526020016000206000905550505050565b60006001600880549050613a109190614f91565b9050600060096000848152602001908152602001600020549050600060088381548110613a66577f4e487b7100000000000000000000000000000000000000000000000000000000600052603260045260246000fd5b906000526020600020015490508060088381548110613aae577f4e487b7100000000000000000000000000000000000000000000000000000000600052603260045260246000fd5b906000526020600020018190555081600960008381526020019081526020016000208190555060096000858152602001908152602001600020600090556008805480613b23577f4e487b7100000000000000000000000000000000000000000000000000000000600052603160045260246000fd5b6001900381819060005260206000200160009055905550505050565b6000613b4a8361146d565b905081600660008573ffffffffffffffffffffffffffffffffffffffff1673ffffffffffffffffffffffffffffffffffffffff168152602001908152602001600020600083815260200190815260200160002081905550806007600084815260200190815260200160002081905550505050565b828054613bca906150ce565b90600052602060002090601f016020900481019282613bec5760008555613c33565b82601f10613c0557805160ff1916838001178555613c33565b82800160010185558215613c33579182015b82811115613c32578251825591602001919060010190613c17565b5b509050613c409190613c44565b5090565b5b80821115613c5d576000816000905550600101613c45565b5090565b6000613c74613c6f84614e03565b614dde565b905082815260208101848484011115613c8c57600080fd5b613c97848285615062565b509392505050565b6000613cb2613cad84614e34565b614dde565b905082815260208101848484011115613cca57600080fd5b613cd5848285615062565b509392505050565b600081359050613cec81615a58565b92915050565b600081359050613d0181615a6f565b92915050565b600081359050613d1681615a86565b92915050565b600081359050613d2b81615a9d565b92915050565b600081519050613d4081615a9d565b92915050565b60008083601f840112613d5857600080fd5b8235905067ffffffffffffffff811115613d7157600080fd5b602083019150836001820283011115613d8957600080fd5b9250929050565b600082601f830112613da157600080fd5b8135613db1848260208601613c61565b91505092915050565b600082601f830112613dcb57600080fd5b8135613ddb848260208601613c9f565b91505092915050565b600081359050613df381615ab4565b92915050565b600060208284031215613e0b57600080fd5b6000613e1984828501613cdd565b91505092915050565b600060208284031215613e3457600080fd5b6000613e4284828501613cf2565b91505092915050565b60008060408385031215613e5e57600080fd5b6000613e6c85828601613cdd565b9250506020613e7d85828601613cdd565b9150509250929050565b600080600060608486031215613e9c57600080fd5b6000613eaa86828701613cdd565b9350506020613ebb86828701613cdd565b9250506040613ecc86828701613de4565b9150509250925092565b60008060008060808587031215613eec57600080fd5b6000613efa87828801613cdd565b9450506020613f0b87828801613cdd565b9350506040613f1c87828801613de4565b925050606085013567ffffffffffffffff811115613f3957600080fd5b613f4587828801613d90565b91505092959194509250565b60008060408385031215613f6457600080fd5b6000613f7285828601613cdd565b9250506020613f8385828601613d07565b9150509250929050565b60008060408385031215613fa057600080fd5b6000613fae85828601613cdd565b9250506020613fbf85828601613de4565b9150509250929050565b600060208284031215613fdb57600080fd5b6000613fe984828501613d1c565b91505092915050565b60006020828403121561400457600080fd5b600061401284828501613d31565b91505092915050565b60006020828403121561402d57600080fd5b600082013567ffffffffffffffff81111561404757600080fd5b61405384828501613dba565b91505092915050565b60006020828403121561406e57600080fd5b600061407c84828501613de4565b91505092915050565b60008060006040848603121561409a57600080fd5b60006140a886828701613de4565b935050602084013567ffffffffffffffff8111156140c557600080fd5b6140d186828701613d46565b92509250509250925092565b600080600080606085870312156140f357600080fd5b600061410187828801613de4565b945050602061411287828801613de4565b935050604085013567ffffffffffffffff81111561412f57600080fd5b61413b87828801613d46565b925092505092959194509250565b60006141558383614786565b60208301905092915050565b61416a81614fc5565b82525050565b61418161417c82614fc5565b61517a565b82525050565b600061419282614e75565b61419c8185614ea3565b93506141a783614e65565b8060005b838110156141d85781516141bf8882614149565b97506141ca83614e96565b9250506001810190506141ab565b5085935050505092915050565b6141ee81614fe9565b82525050565b6141fd81614ff5565b82525050565b61421461420f82614ff5565b61518c565b82525050565b600061422582614e80565b61422f8185614eb4565b935061423f818560208601615071565b6142488161523f565b840191505092915050565b600061425e82614e8b565b6142688185614ec5565b9350614278818560208601615071565b6142818161523f565b840191505092915050565b600061429782614e8b565b6142a18185614ed6565b93506142b1818560208601615071565b80840191505092915050565b60006142ca601883614ec5565b91506142d58261525d565b602082019050919050565b60006142ed601d83614ec5565b91506142f882615286565b602082019050919050565b6000614310600983614ec5565b915061431b826152af565b602082019050919050565b6000614333601183614ec5565b915061433e826152d8565b602082019050919050565b6000614356601f83614ec5565b915061436182615301565b602082019050919050565b6000614379601c83614ed6565b91506143848261532a565b601c82019050919050565b600061439c602b83614ec5565b91506143a782615353565b604082019050919050565b60006143bf601683614ec5565b91506143ca826153a2565b602082019050919050565b60006143e2603283614ec5565b91506143ed826153cb565b604082019050919050565b6000614405602683614ec5565b91506144108261541a565b604082019050919050565b6000614428601c83614ec5565b915061443382615469565b602082019050919050565b600061444b602483614ec5565b915061445682615492565b604082019050919050565b600061446e601983614ec5565b9150614479826154e1565b602082019050919050565b6000614491602283614ec5565b915061449c8261550a565b604082019050919050565b60006144b4602c83614ec5565b91506144bf82615559565b604082019050919050565b60006144d7601283614ec5565b91506144e2826155a8565b602082019050919050565b60006144fa603883614ec5565b9150614505826155d1565b604082019050919050565b600061451d602a83614ec5565b915061452882615620565b604082019050919050565b6000614540602983614ec5565b915061454b8261566f565b604082019050919050565b6000614563602283614ec5565b915061456e826156be565b604082019050919050565b6000614586600d83614ec5565b91506145918261570d565b602082019050919050565b60006145a9602083614ec5565b91506145b482615736565b602082019050919050565b60006145cc601483614ec5565b91506145d78261575f565b602082019050919050565b60006145ef602c83614ec5565b91506145fa82615788565b604082019050919050565b6000614612602083614ec5565b915061461d826157d7565b602082019050919050565b6000614635601183614ec5565b915061464082615800565b602082019050919050565b6000614658602983614ec5565b915061466382615829565b604082019050919050565b600061467b601983614ec5565b915061468682615878565b602082019050919050565b600061469e602f83614ec5565b91506146a9826158a1565b604082019050919050565b60006146c1602183614ec5565b91506146cc826158f0565b604082019050919050565b60006146e4603183614ec5565b91506146ef8261593f565b604082019050919050565b6000614707601983614ec5565b91506147128261598e565b602082019050919050565b600061472a602c83614ec5565b9150614735826159b7565b604082019050919050565b600061474d601a83614ec5565b915061475882615a06565b602082019050919050565b6000614770601f83614ec5565b915061477b82615a2f565b602082019050919050565b61478f8161504b565b82525050565b61479e8161504b565b82525050565b6147b56147b08261504b565b6151a8565b82525050565b6147c481615055565b82525050565b60006147d68285614170565b6014820191506147e682846147a4565b6020820191508190509392505050565b6000614802828461428c565b915081905092915050565b60006148188261436c565b91506148248284614203565b60208201915081905092915050565b60006020820190506148486000830184614161565b92915050565b60006080820190506148636000830187614161565b6148706020830186614161565b61487d6040830185614795565b818103606083015261488f818461421a565b905095945050505050565b600060208201905081810360008301526148b48184614187565b905092915050565b60006020820190506148d160008301846141e5565b92915050565b60006080820190506148ec60008301876141f4565b6148f960208301866147bb565b61490660408301856141f4565b61491360608301846141f4565b95945050505050565b600060208201905081810360008301526149368184614253565b905092915050565b600060608201905081810360008301526149588186614253565b9050818103602083015261496c8185614253565b905061497b6040830184614795565b949350505050565b6000602082019050818103600083015261499c816142bd565b9050919050565b600060208201905081810360008301526149bc816142e0565b9050919050565b600060208201905081810360008301526149dc81614303565b9050919050565b600060208201905081810360008301526149fc81614326565b9050919050565b60006020820190508181036000830152614a1c81614349565b9050919050565b60006020820190508181036000830152614a3c8161438f565b9050919050565b60006020820190508181036000830152614a5c816143b2565b9050919050565b60006020820190508181036000830152614a7c816143d5565b9050919050565b60006020820190508181036000830152614a9c816143f8565b9050919050565b60006020820190508181036000830152614abc8161441b565b9050919050565b60006020820190508181036000830152614adc8161443e565b9050919050565b60006020820190508181036000830152614afc81614461565b9050919050565b60006020820190508181036000830152614b1c81614484565b9050919050565b60006020820190508181036000830152614b3c816144a7565b9050919050565b60006020820190508181036000830152614b5c816144ca565b9050919050565b60006020820190508181036000830152614b7c816144ed565b9050919050565b60006020820190508181036000830152614b9c81614510565b9050919050565b60006020820190508181036000830152614bbc81614533565b9050919050565b60006020820190508181036000830152614bdc81614556565b9050919050565b60006020820190508181036000830152614bfc81614579565b9050919050565b60006020820190508181036000830152614c1c8161459c565b9050919050565b60006020820190508181036000830152614c3c816145bf565b9050919050565b60006020820190508181036000830152614c5c816145e2565b9050919050565b60006020820190508181036000830152614c7c81614605565b9050919050565b60006020820190508181036000830152614c9c81614628565b9050919050565b60006020820190508181036000830152614cbc8161464b565b9050919050565b60006020820190508181036000830152614cdc8161466e565b9050919050565b60006020820190508181036000830152614cfc81614691565b9050919050565b60006020820190508181036000830152614d1c816146b4565b9050919050565b60006020820190508181036000830152614d3c816146d7565b9050919050565b60006020820190508181036000830152614d5c816146fa565b9050919050565b60006020820190508181036000830152614d7c8161471d565b9050919050565b60006020820190508181036000830152614d9c81614740565b9050919050565b60006020820190508181036000830152614dbc81614763565b9050919050565b6000602082019050614dd86000830184614795565b92915050565b6000614de8614df9565b9050614df48282615100565b919050565b6000604051905090565b600067ffffffffffffffff821115614e1e57614e1d615210565b5b614e278261523f565b9050602081019050919050565b600067ffffffffffffffff821115614e4f57614e4e615210565b5b614e588261523f565b9050602081019050919050565b6000819050602082019050919050565b600081519050919050565b600081519050919050565b600081519050919050565b6000602082019050919050565b600082825260208201905092915050565b600082825260208201905092915050565b600082825260208201905092915050565b600081905092915050565b6000614eec8261504b565b9150614ef78361504b565b9250827fffffffffffffffffffffffffffffffffffffffffffffffffffffffffffffffff03821115614f2c57614f2b6151b2565b5b828201905092915050565b6000614f428261504b565b9150614f4d8361504b565b9250817fffffffffffffffffffffffffffffffffffffffffffffffffffffffffffffffff0483118215151615614f8657614f856151b2565b5b828202905092915050565b6000614f9c8261504b565b9150614fa78361504b565b925082821015614fba57614fb96151b2565b5b828203905092915050565b6000614fd08261502b565b9050919050565b6000614fe28261502b565b9050919050565b60008115159050919050565b6000819050919050565b60007fffffffff0000000000000000000000000000000000000000000000000000000082169050919050565b600073ffffffffffffffffffffffffffffffffffffffff82169050919050565b6000819050919050565b600060ff82169050919050565b82818337600083830152505050565b60005b8381101561508f578082015181840152602081019050615074565b8381111561509e576000848401525b50505050565b60006150af8261504b565b915060008214156150c3576150c26151b2565b5b600182039050919050565b600060028204905060018216806150e657607f821691505b602082108114156150fa576150f96151e1565b5b50919050565b6151098261523f565b810181811067ffffffffffffffff8211171561512857615127615210565b5b80604052505050565b600061513c8261504b565b91507fffffffffffffffffffffffffffffffffffffffffffffffffffffffffffffffff82141561516f5761516e6151b2565b5b600182019050919050565b600061518582615196565b9050919050565b6000819050919050565b60006151a182615250565b9050919050565b6000819050919050565b7f4e487b7100000000000000000000000000000000000000000000000000000000600052601160045260246000fd5b7f4e487b7100000000000000000000000000000000000000000000000000000000600052602260045260246000fd5b7f4e487b7100000000000000000000000000000000000000000000000000000000600052604160045260246000fd5b6000601f19601f8301169050919050565b60008160601b9050919050565b7f45434453413a20696e76616c6964207369676e61747572650000000000000000600082015250565b7f65786365656473206d617820746f6b656e73207065722077616c6c6574000000600082015250565b7f6c6f636b65642e2e2e0000000000000000000000000000000000000000000000600082015250565b7f696e76616c6964207369676e6174757265000000000000000000000000000000600082015250565b7f45434453413a20696e76616c6964207369676e6174757265206c656e67746800600082015250565b7f19457468657265756d205369676e6564204d6573736167653a0a333200000000600082015250565b7f455243373231456e756d657261626c653a206f776e657220696e646578206f7560008201527f74206f6620626f756e6473000000000000000000000000000000000000000000602082015250565b7f70726573616c65206d7573742062652061637469766500000000000000000000600082015250565b7f4552433732313a207472616e7366657220746f206e6f6e20455243373231526560008201527f63656976657220696d706c656d656e7465720000000000000000000000000000602082015250565b7f4f776e61626c653a206e6577206f776e657220697320746865207a65726f206160008201527f6464726573730000000000000000000000000000000000000000000000000000602082015250565b7f4552433732313a20746f6b656e20616c7265616479206d696e74656400000000600082015250565b7f4552433732313a207472616e7366657220746f20746865207a65726f2061646460008201527f7265737300000000000000000000000000000000000000000000000000000000602082015250565b7f4552433732313a20617070726f766520746f2063616c6c657200000000000000600082015250565b7f45434453413a20696e76616c6964207369676e6174757265202773272076616c60008201527f7565000000000000000000000000000000000000000000000000000000000000602082015250565b7f4552433732313a206f70657261746f7220717565727920666f72206e6f6e657860008201527f697374656e7420746f6b656e0000000000000000000000000000000000000000602082015250565b7f73616c65206973206e6f74206163746976650000000000000000000000000000600082015250565b7f4552433732313a20617070726f76652063616c6c6572206973206e6f74206f7760008201527f6e6572206e6f7220617070726f76656420666f7220616c6c0000000000000000602082015250565b7f4552433732313a2062616c616e636520717565727920666f7220746865207a6560008201527f726f206164647265737300000000000000000000000000000000000000000000602082015250565b7f4552433732313a206f776e657220717565727920666f72206e6f6e657869737460008201527f656e7420746f6b656e0000000000000000000000000000000000000000000000602082015250565b7f45434453413a20696e76616c6964207369676e6174757265202776272076616c60008201527f7565000000000000000000000000000000000000000000000000000000000000602082015250565b7f6d696e742066696e697368656400000000000000000000000000000000000000600082015250565b7f4552433732313a206d696e7420746f20746865207a65726f2061646472657373600082015250565b7f6578636565647320746f74616c20737570706c79000000000000000000000000600082015250565b7f4552433732313a20617070726f76656420717565727920666f72206e6f6e657860008201527f697374656e7420746f6b656e0000000000000000000000000000000000000000602082015250565b7f4f776e61626c653a2063616c6c6572206973206e6f7420746865206f776e6572600082015250565b7f72657365727665642066696e6973686564000000000000000000000000000000600082015250565b7f4552433732313a207472616e73666572206f6620746f6b656e2074686174206960008201527f73206e6f74206f776e0000000000000000000000000000000000000000000000602082015250565b7f636f6e74726163747320617265206e6f7420616c6c6f77656400000000000000600082015250565b7f4552433732314d657461646174613a2055524920717565727920666f72206e6f60008201527f6e6578697374656e7420746f6b656e0000000000000000000000000000000000602082015250565b7f4552433732313a20617070726f76616c20746f2063757272656e74206f776e6560008201527f7200000000000000000000000000000000000000000000000000000000000000602082015250565b7f4552433732313a207472616e736665722063616c6c6572206973206e6f74206f60008201527f776e6572206e6f7220617070726f766564000000000000000000000000000000602082015250565b7f65786365656473206d6178207075626c696320737570706c7900000000000000600082015250565b7f455243373231456e756d657261626c653a20676c6f62616c20696e646578206f60008201527f7574206f6620626f756e64730000000000000000000000000000000000000000602082015250565b7f696e636f72726563742065746865722076616c75652073656e74000000000000600082015250565b7f63616e6e6f74207573652073616d65207369676e617475726520747769636500600082015250565b615a6181614fc5565b8114615a6c57600080fd5b50565b615a7881614fd7565b8114615a8357600080fd5b50565b615a8f81614fe9565b8114615a9a57600080fd5b50565b615aa681614fff565b8114615ab157600080fd5b50565b615abd8161504b565b8114615ac857600080fd5b5056fea2646970667358221220fc388eec99f9625199e6ba6b3c8cb80cfb6ccb2e365d53b919c0aeb5264a3a6b64736f6c63430008040033",
  "linkReferences": {},
  "deployedLinkReferences": {}
}